{
  "contractName": "Airbnb",
  "abi": [
    {
      "constant": true,
      "inputs": [],
      "name": "bookingId",
      "outputs": [
        {
          "name": "",
          "type": "uint256"
        }
      ],
      "payable": false,
      "stateMutability": "view",
      "type": "function"
    },
    {
      "constant": false,
      "inputs": [],
      "name": "setDefaultRelayHub",
      "outputs": [],
      "payable": false,
      "stateMutability": "nonpayable",
      "type": "function"
    },
    {
      "constant": true,
      "inputs": [
        {
          "name": "",
          "type": "uint256"
        }
      ],
      "name": "bookings",
      "outputs": [
        {
          "name": "propertyId",
          "type": "uint256"
        },
        {
          "name": "checkInDate",
          "type": "uint256"
        },
        {
          "name": "checkoutDate",
          "type": "uint256"
        },
        {
          "name": "user",
          "type": "address"
        }
      ],
      "payable": false,
      "stateMutability": "view",
      "type": "function"
    },
    {
      "constant": true,
      "inputs": [],
      "name": "getHubAddr",
      "outputs": [
        {
          "name": "",
          "type": "address"
        }
      ],
      "payable": false,
      "stateMutability": "view",
      "type": "function"
    },
    {
      "constant": false,
      "inputs": [
        {
          "name": "context",
          "type": "bytes"
        }
      ],
      "name": "preRelayedCall",
      "outputs": [
        {
          "name": "",
          "type": "bytes32"
        }
      ],
      "payable": false,
      "stateMutability": "nonpayable",
      "type": "function"
    },
    {
      "constant": false,
      "inputs": [],
      "name": "initialize",
      "outputs": [],
      "payable": false,
      "stateMutability": "nonpayable",
      "type": "function"
    },
    {
      "constant": true,
      "inputs": [],
      "name": "relayHubVersion",
      "outputs": [
        {
          "name": "",
          "type": "string"
        }
      ],
      "payable": false,
      "stateMutability": "view",
      "type": "function"
    },
    {
      "constant": false,
      "inputs": [
        {
          "name": "context",
          "type": "bytes"
        },
        {
          "name": "success",
          "type": "bool"
        },
        {
          "name": "actualCharge",
          "type": "uint256"
        },
        {
          "name": "preRetVal",
          "type": "bytes32"
        }
      ],
      "name": "postRelayedCall",
      "outputs": [],
      "payable": false,
      "stateMutability": "nonpayable",
      "type": "function"
    },
    {
      "constant": true,
      "inputs": [],
      "name": "propertyId",
      "outputs": [
        {
          "name": "",
          "type": "uint256"
        }
      ],
      "payable": false,
      "stateMutability": "view",
      "type": "function"
    },
    {
      "constant": true,
      "inputs": [
        {
          "name": "",
          "type": "uint256"
        }
      ],
      "name": "properties",
      "outputs": [
        {
          "name": "name",
          "type": "string"
        },
        {
          "name": "description",
          "type": "string"
        },
        {
          "name": "isActive",
          "type": "bool"
        },
        {
          "name": "price",
          "type": "uint256"
        },
        {
          "name": "owner",
          "type": "address"
        }
      ],
      "payable": false,
      "stateMutability": "view",
      "type": "function"
    },
    {
      "anonymous": false,
      "inputs": [
        {
          "indexed": true,
          "name": "propertyId",
          "type": "uint256"
        }
      ],
      "name": "NewProperty",
      "type": "event"
    },
    {
      "anonymous": false,
      "inputs": [
        {
          "indexed": true,
          "name": "propertyId",
          "type": "uint256"
        },
        {
          "indexed": true,
          "name": "bookingId",
          "type": "uint256"
        }
      ],
      "name": "NewBooking",
      "type": "event"
    },
    {
      "anonymous": false,
      "inputs": [
        {
          "indexed": true,
          "name": "oldRelayHub",
          "type": "address"
        },
        {
          "indexed": true,
          "name": "newRelayHub",
          "type": "address"
        }
      ],
      "name": "RelayHubChanged",
      "type": "event"
    },
    {
      "constant": true,
      "inputs": [
        {
          "name": "relay",
          "type": "address"
        },
        {
          "name": "from",
          "type": "address"
        },
        {
          "name": "encodedFunction",
          "type": "bytes"
        },
        {
          "name": "transactionFee",
          "type": "uint256"
        },
        {
          "name": "gasPrice",
          "type": "uint256"
        },
        {
          "name": "gasLimit",
          "type": "uint256"
        },
        {
          "name": "nonce",
          "type": "uint256"
        },
        {
          "name": "approvalData",
          "type": "bytes"
        },
        {
          "name": "maxPossibleCharge",
          "type": "uint256"
        }
      ],
      "name": "acceptRelayedCall",
      "outputs": [
        {
          "name": "",
          "type": "uint256"
        },
        {
          "name": "",
          "type": "bytes"
        }
      ],
      "payable": false,
      "stateMutability": "view",
      "type": "function"
    },
    {
      "constant": false,
      "inputs": [
        {
          "name": "name",
          "type": "string"
        },
        {
          "name": "description",
          "type": "string"
        },
        {
          "name": "price",
          "type": "uint256"
        }
      ],
      "name": "rentOutproperty",
      "outputs": [],
      "payable": false,
      "stateMutability": "nonpayable",
      "type": "function"
    },
    {
      "constant": false,
      "inputs": [
        {
          "name": "_propertyId",
          "type": "uint256"
        },
        {
          "name": "checkInDate",
          "type": "uint256"
        },
        {
          "name": "checkoutDate",
          "type": "uint256"
        }
      ],
      "name": "rentProperty",
      "outputs": [],
      "payable": true,
      "stateMutability": "payable",
      "type": "function"
    },
    {
      "constant": false,
      "inputs": [
        {
          "name": "_propertyId",
          "type": "uint256"
        }
      ],
      "name": "markPropertyAsInactive",
      "outputs": [],
      "payable": false,
      "stateMutability": "nonpayable",
      "type": "function"
    }
  ],
  "bytecode": "0x6080604052611b59806100136000396000f3fe6080604052600436106100dd5760003560e01c806383947ea01161007f578063d2da7c7111610059578063d2da7c71146106be578063e06e0e2214610700578063ee7a3b8e146107a6578063f7b10808146107d1576100dd565b806383947ea014610425578063ad61ccd5146105f3578063b3e3f80314610683576100dd565b80632c56ed27116100bb5780632c56ed27146101b457806374e861d61461031d57806380274db7146103745780638129fc1c1461040e576100dd565b80630a10df7c146100e25780631220e2ff1461010d5780631dab301e14610124575b600080fd5b3480156100ee57600080fd5b506100f7610936565b6040518082815260200191505060405180910390f35b34801561011957600080fd5b5061012261093c565b005b34801561013057600080fd5b5061015d6004803603602081101561014757600080fd5b810190808035906020019092919050505061095b565b604051808581526020018481526020018381526020018273ffffffffffffffffffffffffffffffffffffffff1673ffffffffffffffffffffffffffffffffffffffff16815260200194505050505060405180910390f35b3480156101c057600080fd5b5061031b600480360360608110156101d757600080fd5b81019080803590602001906401000000008111156101f457600080fd5b82018360208201111561020657600080fd5b8035906020019184600183028401116401000000008311171561022857600080fd5b91908080601f016020809104026020016040519081016040528093929190818152602001838380828437600081840152601f19601f8201169050808301925050505050505091929192908035906020019064010000000081111561028b57600080fd5b82018360208201111561029d57600080fd5b803590602001918460018302840111640100000000831117156102bf57600080fd5b91908080601f016020809104026020016040519081016040528093929190818152602001838380828437600081840152601f19601f820116905080830192505050505050509192919290803590602001909291905050506109ab565b005b34801561032957600080fd5b50610332610b5d565b604051808273ffffffffffffffffffffffffffffffffffffffff1673ffffffffffffffffffffffffffffffffffffffff16815260200191505060405180910390f35b34801561038057600080fd5b506103f86004803603602081101561039757600080fd5b81019080803590602001906401000000008111156103b457600080fd5b8201836020820111156103c657600080fd5b803590602001918460018302840111640100000000831117156103e857600080fd5b9091929391929390505050610b87565b6040518082815260200191505060405180910390f35b34801561041a57600080fd5b50610423610c69565b005b34801561043157600080fd5b50610571600480360361012081101561044957600080fd5b81019080803573ffffffffffffffffffffffffffffffffffffffff169060200190929190803573ffffffffffffffffffffffffffffffffffffffff169060200190929190803590602001906401000000008111156104a657600080fd5b8201836020820111156104b857600080fd5b803590602001918460018302840111640100000000831117156104da57600080fd5b9091929391929390803590602001909291908035906020019092919080359060200190929190803590602001909291908035906020019064010000000081111561052357600080fd5b82018360208201111561053557600080fd5b8035906020019184600183028401116401000000008311171561055757600080fd5b909192939192939080359060200190929190505050610dc8565b6040518083815260200180602001828103825283818151815260200191508051906020019080838360005b838110156105b757808201518184015260208101905061059c565b50505050905090810190601f1680156105e45780820380516001836020036101000a031916815260200191505b50935050505060405180910390f35b3480156105ff57600080fd5b50610608610de8565b6040518080602001828103825283818151815260200191508051906020019080838360005b8381101561064857808201518184015260208101905061062d565b50505050905090810190601f1680156106755780820380516001836020036101000a031916815260200191505b509250505060405180910390f35b34801561068f57600080fd5b506106bc600480360360208110156106a657600080fd5b8101908080359060200190929190505050610e25565b005b6106fe600480360360608110156106d457600080fd5b81019080803590602001909291908035906020019092919080359060200190929190505050610f3b565b005b34801561070c57600080fd5b506107a46004803603608081101561072357600080fd5b810190808035906020019064010000000081111561074057600080fd5b82018360208201111561075257600080fd5b8035906020019184600183028401116401000000008311171561077457600080fd5b90919293919293908035151590602001909291908035906020019092919080359060200190929190505050611124565b005b3480156107b257600080fd5b506107bb611206565b6040518082815260200191505060405180910390f35b3480156107dd57600080fd5b5061080a600480360360208110156107f457600080fd5b810190808035906020019092919050505061120c565b604051808060200180602001861515151581526020018581526020018473ffffffffffffffffffffffffffffffffffffffff1673ffffffffffffffffffffffffffffffffffffffff168152602001838103835288818151815260200191508051906020019080838360005b83811015610890578082015181840152602081019050610875565b50505050905090810190601f1680156108bd5780820380516001836020036101000a031916815260200191505b50838103825287818151815260200191508051906020019080838360005b838110156108f65780820151818401526020810190506108db565b50505050905090810190601f1680156109235780820380516001836020036101000a031916815260200191505b5097505050505050505060405180910390f35b60365481565b61095973d216153c06e857cd7f72665e0af1d7d82172f49461139f565b565b60376020528060005260406000206000915090508060000154908060010154908060020154908060030160009054906101000a900473ffffffffffffffffffffffffffffffffffffffff16905084565b60006109b5611570565b90506109bf611864565b6040518060c001604052808681526020018581526020016001151581526020018481526020018373ffffffffffffffffffffffffffffffffffffffff16815260200161016d604051908082528060200260200182016040528015610a325781602001602082028038833980820191505090505b508152509050806035600060345481526020019081526020016000206000820151816000019080519060200190610a6a9291906118b2565b506020820151816001019080519060200190610a879291906118b2565b5060408201518160020160006101000a81548160ff0219169083151502179055506060820151816003015560808201518160040160006101000a81548173ffffffffffffffffffffffffffffffffffffffff021916908373ffffffffffffffffffffffffffffffffffffffff16021790555060a0820151816005019080519060200190610b15929190611932565b5090505060346000815480929190600101919050557f49b7a39e21349b16cf820bbd35d2bc2d9f04dac75faa535510fc24d172b34afd60405160405180910390a25050505050565b6000603360009054906101000a900473ffffffffffffffffffffffffffffffffffffffff16905090565b6000610b91610b5d565b73ffffffffffffffffffffffffffffffffffffffff163373ffffffffffffffffffffffffffffffffffffffff1614610c14576040517f08c379a0000000000000000000000000000000000000000000000000000000008152600401808060200182810382526024815260200180611b0a6024913960400191505060405180910390fd5b610c6183838080601f016020809104026020016040519081016040528093929190818152602001838380828437600081840152601f19601f820116905080830192505050505050506115dd565b905092915050565b600060019054906101000a900460ff1680610c885750610c876115e4565b5b80610c9f57506000809054906101000a900460ff16155b610cf4576040517f08c379a000000000000000000000000000000000000000000000000000000000815260040180806020018281038252602e815260200180611aaf602e913960400191505060405180910390fd5b60008060019054906101000a900460ff161590508015610d44576001600060016101000a81548160ff02191690831515021790555060016000806101000a81548160ff0219169083151502179055505b600073ffffffffffffffffffffffffffffffffffffffff16603360009054906101000a900473ffffffffffffffffffffffffffffffffffffffff1673ffffffffffffffffffffffffffffffffffffffff161415610da457610da361093c565b5b8015610dc55760008060016101000a81548160ff0219169083151502179055505b50565b60006060610dd46115f5565b915091509b509b9950505050505050505050565b60606040518060400160405280600581526020017f312e302e30000000000000000000000000000000000000000000000000000000815250905090565b6000610e2f611570565b90508073ffffffffffffffffffffffffffffffffffffffff166035600084815260200190815260200160002060040160009054906101000a900473ffffffffffffffffffffffffffffffffffffffff1673ffffffffffffffffffffffffffffffffffffffff1614610f08576040517f08c379a00000000000000000000000000000000000000000000000000000000081526004018080602001828103825260198152602001807f54484953204953204e4f5420594f55522050524f50455254590000000000000081525060200191505060405180910390fd5b60006035600084815260200190815260200160002060020160006101000a81548160ff0219169083151502179055505050565b6000603560008581526020019081526020016000209050600115158160020160009054906101000a900460ff16151514610fc0576040517f08c379a0000000000000000000000000000000000000000000000000000000008152600401808060200182810382526023815260200180611a2e6023913960400191505060405180910390fd5b60008390505b828110156110675760011515826005018281548110610fe157fe5b90600052602060002090602091828204019190069054906101000a900460ff161515141561105a576040517f08c379a0000000000000000000000000000000000000000000000000000000008152600401808060200182810382526030815260200180611a7f6030913960400191505060405180910390fd5b8080600101915050610fc6565b5082820381600301540234146110e5576040517f08c379a00000000000000000000000000000000000000000000000000000000081526004018080602001828103825260178152602001807f53656e7420696e73756666696369656e742066756e647300000000000000000081525060200191505060405180910390fd5b6111138160040160009054906101000a900473ffffffffffffffffffffffffffffffffffffffff1634611619565b61111e848484611664565b50505050565b61112c610b5d565b73ffffffffffffffffffffffffffffffffffffffff163373ffffffffffffffffffffffffffffffffffffffff16146111af576040517f08c379a0000000000000000000000000000000000000000000000000000000008152600401808060200182810382526024815260200180611b0a6024913960400191505060405180910390fd5b6111ff85858080601f016020809104026020016040519081016040528093929190818152602001838380828437600081840152601f19601f820116905080830192505050505050508484846117d6565b5050505050565b60345481565b6035602052806000526040600020600091509050806000018054600181600116156101000203166002900480601f0160208091040260200160405190810160405280929190818152602001828054600181600116156101000203166002900480156112b85780601f1061128d576101008083540402835291602001916112b8565b820191906000526020600020905b81548152906001019060200180831161129b57829003601f168201915b505050505090806001018054600181600116156101000203166002900480601f0160208091040260200160405190810160405280929190818152602001828054600181600116156101000203166002900480156113565780601f1061132b57610100808354040283529160200191611356565b820191906000526020600020905b81548152906001019060200180831161133957829003601f168201915b5050505050908060020160009054906101000a900460ff16908060030154908060040160009054906101000a900473ffffffffffffffffffffffffffffffffffffffff16905085565b6000603360009054906101000a900473ffffffffffffffffffffffffffffffffffffffff169050600073ffffffffffffffffffffffffffffffffffffffff168273ffffffffffffffffffffffffffffffffffffffff16141561144c576040517f08c379a000000000000000000000000000000000000000000000000000000000815260040180806020018281038252602e815260200180611a51602e913960400191505060405180910390fd5b8073ffffffffffffffffffffffffffffffffffffffff168273ffffffffffffffffffffffffffffffffffffffff1614156114d1576040517f08c379a000000000000000000000000000000000000000000000000000000000815260040180806020018281038252602d815260200180611add602d913960400191505060405180910390fd5b8173ffffffffffffffffffffffffffffffffffffffff168173ffffffffffffffffffffffffffffffffffffffff167fb9f84b8e65164b14439ae3620df0a4d8786d896996c0282b683f9d8c08f046e860405160405180910390a381603360006101000a81548173ffffffffffffffffffffffffffffffffffffffff021916908373ffffffffffffffffffffffffffffffffffffffff1602179055505050565b6000603360009054906101000a900473ffffffffffffffffffffffffffffffffffffffff1673ffffffffffffffffffffffffffffffffffffffff163373ffffffffffffffffffffffffffffffffffffffff16146115cf573390506115da565b6115d76117dc565b90505b90565b6000919050565b600080303b90506000811491505090565b6000606061161160405180602001604052806000815250611854565b915091509091565b8173ffffffffffffffffffffffffffffffffffffffff166108fc829081150290604051600060405180830381858888f1935050505015801561165f573d6000803e3d6000fd5b505050565b600061166e611570565b905060405180608001604052808581526020018481526020018381526020018273ffffffffffffffffffffffffffffffffffffffff1681525060376000603654815260200190815260200160002060008201518160000155602082015181600101556040820151816002015560608201518160030160006101000a81548173ffffffffffffffffffffffffffffffffffffffff021916908373ffffffffffffffffffffffffffffffffffffffff160217905550905050600060356000868152602001908152602001600020905060008490505b8381101561179057600182600501828154811061175a57fe5b90600052602060002090602091828204019190066101000a81548160ff0219169083151502179055508080600101915050611741565b506036600081548092919060010191905055857f4f65de66b4cd3e97fb943ca503efa62b328170ad1a0aac0e9c979a164a317b3860405160405180910390a35050505050565b50505050565b600060606000368080601f016020809104026020016040519081016040528093929190818152602001838380828437600081840152601f19601f820116905080830192505050505050509050600080369050905073ffffffffffffffffffffffffffffffffffffffff81830151169250829250505090565b6000606060008391509150915091565b6040518060c00160405280606081526020016060815260200160001515815260200160008152602001600073ffffffffffffffffffffffffffffffffffffffff168152602001606081525090565b828054600181600116156101000203166002900490600052602060002090601f016020900481019282601f106118f357805160ff1916838001178555611921565b82800160010185558215611921579182015b82811115611920578251825591602001919060010190611905565b5b50905061192e91906119d8565b5090565b82805482825590600052602060002090601f016020900481019282156119c75791602002820160005b8382111561199857835183826101000a81548160ff021916908315150217905550926020019260010160208160000104928301926001030261195b565b80156119c55782816101000a81549060ff0219169055600101602081600001049283019260010302611998565b505b5090506119d491906119fd565b5090565b6119fa91905b808211156119f65760008160009055506001016119de565b5090565b90565b611a2a91905b80821115611a2657600081816101000a81549060ff021916905550600101611a03565b5090565b9056fe70726f706572747920776974682074686973204944206973206e6f742061637469766547534e526563697069656e743a206e65772052656c617948756220697320746865207a65726f206164647265737370726f7065727479206973206e6f7420617661696c61626c6520666f72207468652073656c6563746564206461746573436f6e747261637420696e7374616e63652068617320616c7265616479206265656e20696e697469616c697a656447534e526563697069656e743a206e65772052656c6179487562206973207468652063757272656e74206f6e6547534e526563697069656e743a2063616c6c6572206973206e6f742052656c6179487562a165627a7a723058200154796dd40d750c8ef521e6e20eeb8452b4c1bc4bd311e9b443bc209d13fd850029",
  "source": "pragma solidity ^0.5.7;\n\nimport \"@openzeppelin/contracts-ethereum-package/contracts/GSN/GSNRecipient.sol\";\n\ncontract Airbnb is GSNRecipient {\n\n  function acceptRelayedCall(\n    address relay,\n    address from,\n    bytes calldata encodedFunction,\n    uint256 transactionFee,\n    uint256 gasPrice,\n    uint256 gasLimit,\n    uint256 nonce,\n    bytes calldata approvalData,\n    uint256 maxPossibleCharge\n  ) external view returns (uint256, bytes memory) {\n\n\t\t// approve ALL calls!\n    return _approveRelayedCall();\n\n  }\n\n  function _preRelayedCall(bytes memory context) internal returns (bytes32) {\n  }\n  function _postRelayedCall(bytes memory context, bool, uint256 actualCharge, bytes32) internal {\n  }\n\n  struct Property {\n    string name;\n    string description;\n    bool isActive; // is property active\n    uint256 price; // per day price in wei (1 ether = 10^18 wei)\n    address owner; // Owner of the property\n    // Is the property booked on a particular day,\n    // For the sake of simplicity, we assign 0 to Jan 1, 1 to Jan 2 and so on\n    // so isBooked[31] will denote whether the property is booked for Feb 1\n    bool[] isBooked;\n  }\n\n  uint256 public propertyId;\n\n  // mapping of propertyId to Property object\n  mapping(uint256 => Property) public properties;\n\n  // Details of a particular booking\n  struct Booking {\n    uint256 propertyId;\n    uint256 checkInDate;\n    uint256 checkoutDate;\n    address user;\n  }\n\n  uint256 public bookingId;\n\n  // mapping of bookingId to Booking object\n  mapping(uint256 => Booking) public bookings;\n\n  // This event is emitted when a new property is put up for sale\n  event NewProperty (\n    uint256 indexed propertyId\n  );\n\n  // This event is emitted when a NewBooking is made\n  event NewBooking (\n    uint256 indexed propertyId,\n    uint256 indexed bookingId\n  );\n\n  /**\n   * @dev Put up an Airbnb property in the market\n   * @param name Name of the property\n   * @param description Short description of your property\n   * @param price Price per day in wei (1 ether = 10^18 wei)\n   */\n  function rentOutproperty(string memory name, string memory description, uint256 price) public {\n    address sender = _msgSender();\n    Property memory property = Property(name, description, true /* isActive */, price, sender /* owner */, new bool[](365));\n\n    // Persist `property` object to the \"permanent\" storage\n    properties[propertyId] = property;\n\n    // emit an event to notify the clients\n    emit NewProperty(propertyId++);\n  }\n\n  /**\n   * @dev Make an Airbnb booking\n   * @param _propertyId id of the property to rent out\n   * @param checkInDate Check-in date\n   * @param checkoutDate Check-out date\n   */\n  function rentProperty(uint256 _propertyId, uint256 checkInDate, uint256 checkoutDate) public payable {\n    // Retrieve `property` object from the storage\n    Property storage property = properties[_propertyId];\n\n    // Assert that property is active\n    require(\n      property.isActive == true,\n      \"property with this ID is not active\"\n    );\n\n    // Assert that property is available for the dates\n    for (uint256 i = checkInDate; i < checkoutDate; i++) {\n      if (property.isBooked[i] == true) {\n        // if property is booked on a day, revert the transaction\n        revert(\"property is not available for the selected dates\");\n      }\n    }\n\n    // Check the customer has sent an amount equal to (pricePerDay * numberOfDays)\n    require(\n      msg.value == property.price * (checkoutDate - checkInDate),\n      \"Sent insufficient funds\"\n    );\n\n    // send funds to the owner of the property\n    _sendFunds(property.owner, msg.value);\n\n    // conditions for a booking are satisfied, so make the booking\n    _createBooking(_propertyId, checkInDate, checkoutDate);\n  }\n\n  function _createBooking(uint256 _propertyId, uint256 checkInDate, uint256 checkoutDate) internal {\n    // Create a new booking object\n    address sender = _msgSender();\n    bookings[bookingId] = Booking(_propertyId, checkInDate, checkoutDate, sender);\n\n    // Retrieve `property` object from the storage\n    Property storage property = properties[_propertyId];\n\n    // Mark the property booked on the requested dates\n    for (uint256 i = checkInDate; i < checkoutDate; i++) {\n      property.isBooked[i] = true;\n    }\n\n    // Emit an event to notify clients\n    emit NewBooking(_propertyId, bookingId++);\n  }\n\n  function _sendFunds (address beneficiary, uint256 value) internal {\n    // address(uint160()) is a weird solidity quirk\n    // Read more here: https://solidity.readthedocs.io/en/v0.5.10/050-breaking-changes.html?highlight=address%20payable#explicitness-requirements\n    address(uint160(beneficiary)).transfer(value);\n  }\n\n  /**\n   * @dev Take down the property from the market\n   * @param _propertyId Property ID\n   */\n  function markPropertyAsInactive(uint256 _propertyId) public {\n    address sender = _msgSender();\n    require(\n      properties[_propertyId].owner == sender,\n      \"THIS IS NOT YOUR PROPERTY\"\n    );\n    properties[_propertyId].isActive = false;\n  }\n}\n",
  "sourcePath": "/Users/angela/matic/ethindia-workshop/contracts/Airbnb.sol",
  "compiler": {
    "name": "solc",
    "version": "0.5.8+commit.23d335f2.Emscripten.clang"
  },
  "schemaVersion": "3.0.16",
  "updatedAt": "2020-01-05T15:38:39.836Z",
  "devdoc": {
    "methods": {
      "getHubAddr()": {
        "details": "Returns the address of the {IRelayHub} contract for this recipient."
      },
      "markPropertyAsInactive(uint256)": {
        "details": "Take down the property from the market",
        "params": {
          "_propertyId": "Property ID"
        }
      },
      "postRelayedCall(bytes,bool,uint256,bytes32)": {
        "details": "See `IRelayRecipient.postRelayedCall`.     * This function should not be overriden directly, use `_postRelayedCall` instead.     * * Requirements:     * - the caller must be the `RelayHub` contract."
      },
      "preRelayedCall(bytes)": {
        "details": "See `IRelayRecipient.preRelayedCall`.     * This function should not be overriden directly, use `_preRelayedCall` instead.     * * Requirements:     * - the caller must be the `RelayHub` contract."
      },
      "relayHubVersion()": {
        "details": "Returns the version string of the {IRelayHub} for which this recipient implementation was built. If {_upgradeRelayHub} is used, the new {IRelayHub} instance should be compatible with this version."
      },
      "rentOutproperty(string,string,uint256)": {
        "details": "Put up an Airbnb property in the market",
        "params": {
          "description": "Short description of your property",
          "name": "Name of the property",
          "price": "Price per day in wei (1 ether = 10^18 wei)"
        }
      },
      "rentProperty(uint256,uint256,uint256)": {
        "details": "Make an Airbnb booking",
        "params": {
          "_propertyId": "id of the property to rent out",
          "checkInDate": "Check-in date",
          "checkoutDate": "Check-out date"
        }
      }
    }
  },
  "userdoc": {
    "methods": {}
  }
}